:100000009BC00000B7C00000B5C00000B3C0000036
:10001000B1C00000AFC00000ADC00000ABC0000028
:10002000A9C00000A7C0000025C20000A3C00000B6
:10003000A1C000009FC000009DC000009BC0000048
:1000400099C0000097C0000095C0000093C0000058
:1000500091C000008FC000008DC000008BC0000068
:1000600089C0000087C0000085C0000083C0000078
:1000700081C000007FC000007DC000007BC0000088
:1000800079C0000077C0000075C0000073C0000098
:1000900071C000006FC000002C034C0055004600EA
:1000A00041002000470065006E0065007200690095
:1000B000630020004800490044002000440065001F
:1000C0006D006F00000018034400650061006E00C1
:1000D0002000430061006D006500720061000000B7
:1000E0000403090409022200010100C032090400CE
:1000F0000001030000000921110100012220000776
:1001000005810308000A1201100100000008EB033A
:100110004F20010001020001069CFF0901A1010915
:1001200002750895081580257F81020903750895D9
:1001300008150025FF9102C011241FBECFEFD0E2A9
:10014000DEBFCDBF11E0A0E0B1E0ECECFFE000E0ED
:100150000BBF02C007900D92AE31B107D9F71BBE9D
:1001600011E0AEE1B1E001C01D92AE33B107E1F79D
:1001700022D02AC745CF9BB19F70982B9BB9089579
:1001800084B7877F84BF88E10FB6F89480936000BE
:10019000109260000FBE90E080E80FB6F894809354
:1001A0006100909361000FBE8AB1806F8AB98BB1F4
:1001B0008F708BB949C1E4DF80E1DDDF789480E0A6
:1001C00091E032D6D0D4FBCF80EAD5CF80E1D3CF37
:1001D00080E091E0FDD59091E20094609093E20080
:1001E000882311F080E601C080E9C5CF80E091E06E
:1001F000CDC480910B0190910C01009729F00197DB
:1002000090930C0180930B0108950F931F93CF934C
:10021000DF93C901E80120911E01222311F0FB01A7
:10022000208361E271E040911F0150912001BCD612
:1002300080911F01909120019983888381E0DF9153
:10024000CF911F910F9108950F931F93A8018EE1F5
:1002500091E060931E0100931F01FC0152830396FD
:10026000B901A2D61F910F910895933089F094306F
:1002700028F4913049F1923061F505C09132D1F006
:10028000923239F51CC082E290E0E4EEF0E025C045
:10029000813041F0813018F08230D9F406C0E0EEB0
:1002A000F0E005C0E6ECF0E002C0E8E9F0E084919F
:1002B00090E013C089E090E0E6EFF0E00EC080E24D
:1002C00090E0E8E1F1E009C082E190E0E6E0F1E0F1
:1002D00004C080E090E0E0E0F0E0DA011196FC93E9
:1002E000EE9308958093E900EBEEF0E08081816069
:1002F0008083EDEEF0E010826093EC00408380910B
:10030000EE00881F8827881F08958091360187FF97
:1003100013C004C0809135018823B9F08091E800B2
:1003200082FFF8CF8091E8008B778093E8000895F2
:1003300080913501882349F08091E80080FFF8CF53
:100340008091E8008E778093E80008958091E40022
:100350009091E50045E601C0C9012091EC0020FF25
:1003600005C02091E80020FF05C019C02091E800D9
:1003700022FD15C020913501222399F0253099F0F6
:100380002091EB0025FD11C02091E4003091E500A3
:100390002817390711F34150F9F684E0089580E0F9
:1003A000089582E0089583E0089581E0089555D08E
:1003B0005CD08091D800982F9F779093D800806868
:1003C0008093D8008CE089BD89B5826089BD09B46D
:1003D00000FEFDCF8091D8008F7D8093D800809162
:1003E000D70080688093D7001092350110923301B6
:1003F00010923201109231018091E0008B7F809346
:10040000E0008091D80081608093D80080E060E0B7
:1004100042E068DF8091E1008E7F8093E10080916F
:10042000E20081608093E2008091E2008860809326
:10043000E2008091E0008E7F8093E0008091D80000
:1004400080618093D8000895E7EDF0E080818160BD
:10045000808381E080933401AACFE8EDF0E08081D1
:100460008C7F80831092E20008951092DA0010923F
:10047000E10008951F920F920FB60F920BB60F92E4
:1004800011242F933F934F935F936F937F938F9399
:100490009F93AF93BF93EF93FF938091DA0080FF18
:1004A00015C08091D80080FF11C08091DA008E7F46
:1004B0008093DA008091D90080FF05C081E08093AD
:1004C000350182DE03C01092350180DE8091E100AB
:1004D00080FF1DC08091E20080FF19C08091E10083
:1004E0008E7F8093E1008091E2008E7F8093E20016
:1004F0008091E20080618093E2008091D800806268
:100500008093D80019BC85E080933501DCD18091BF
:10051000E10084FF2EC08091E20084FF2AC08CE0BD
:1005200089BD89B5826089BD09B400FEFDCF809187
:10053000D8008F7D8093D8008091E1008F7E8093DA
:10054000E1008091E2008F7E8093E2008091E200E2
:1005500081608093E20080913301882321F48091AF
:10056000E30087FF02C084E001C081E08093350191
:10057000AAD18091E10083FF22C08091E20083FF35
:100580001EC08091E100877F8093E10082E080932C
:100590003501109233018091E1008E7F8093E1005C
:1005A0008091E2008E7F8093E2008091E200806182
:1005B0008093E20080E060E042E094DE84D18091AC
:1005C000E10082FF0AC08091E20082FF06C08091B4
:1005D000E1008B7F8093E1000CDEFF91EF91BF91F2
:1005E000AF919F918F917F916F915F914F913F91CB
:1005F0002F910F900BBE0F900FBE0F901F9018956C
:100600000F931F93CF93DF93CDB7DEB7AC970FB6A1
:10061000F894DEBF0FBECDBF88E0E6E3F1E0909135
:10062000F10091938150D9F78091360120913701E3
:10063000253009F484C0263040F42130A1F1213066
:1006400070F0233009F025C12EC0283009F4F2C023
:10065000293009F401C1263009F01BC196C0803849
:1006600021F0823809F015C108C0809131019091C4
:100670003201992371F082600CC080913A01877039
:100680008093E9009091EB0081E095FF80E010926B
:10069000E9009091E800977F9093E8008093F10043
:1006A0001092F100D2C0882319F0823009F0F1C015
:1006B00090E08F719070009729F08230910509F0D9
:1006C000E9C00BC080913801813009F0E3C02330CC
:1006D00009F080E0809332012CC08091380188239A
:1006E00041F520913A01277009F4D4C02093E90024
:1006F0008091EB0080FF1DC080913701833021F491
:100700008091EB00806213C08091EB008061809348
:10071000EB0081E090E002C0880F991F2A95E2F774
:100720008093EA001092EA008091EB008860809349
:10073000EB001092E9008091E800877F89C0882350
:1007400009F0A7C0109138011F770FB7F894809176
:10075000E800877F8093E800D8DD8091E80080FF83
:10076000FCCF112311F083E001C082E080933501BA
:100770008091E3008078812B8093E3008091E300F7
:1007800080688093E3000FBF85C08058823008F0F6
:1007900080C0809138019091390123E08C3D92070F
:1007A00089F583E08C838AE28B833FB7F894DE017E
:1007B000159680E090E02EE041E2E22FF0E04093D9
:1007C0005700E49180FF03C0E295EF702F5FEF7058
:1007D0005E2F505D5A3308F0595F5C9311961C925E
:1007E0001197129601968431910539F73FBF809198
:1007F000E800877F8093E800CE0103966AE270E00C
:10080000ADD012C060913A01AE014F5F5F4F2DDD58
:10081000BC01009709F43EC08091E800877F809377
:10082000E80089819A81F6D08091E8008B778093E7
:10083000E80030C0803869F58091E800877F8093B8
:10084000E800809133018093F1008091E8008E7779
:100850008093E8005ADD1EC08823D9F490913801B6
:100860009230C0F48091E800877F8093E8009093F5
:1008700033014BDD80913301882321F48091E30023
:1008800087FF02C084E001C081E080933501A0DCD5
:1008900001C0ACDC8091E80083FF0AC08091EB00CE
:1008A00080628093EB008091E800877F8093E8006E
:1008B000AC960FB6F894DEBF0FBECDBFDF91CF91DF
:1008C0001F910F9108950895AF92BF92CF92DF923A
:1008D000EF92FF920F931F93CF93DF930F92CDB7B9
:1008E000DEB7D82E5B017A01998330DDC82E99815D
:1008F000882339F50D2D192F1CC08091E80085FD46
:1009000010C08091E8008E778093E800E114F10434
:1009100021F0F7010995813081F018DD882349F035
:100920000FC0F80181918F018093F1000894A10814
:10093000B108A114B10409F704C095E0C92E01C0A3
:10094000C82E8C2D0F90DF91CF911F910F91FF90AA
:10095000EF90DF90CF90BF90AF90089520913C0131
:1009600030913D012617370720F4B901FC0120E042
:1009700037C061157105D1F72091E8002E772093DB
:10098000E800F4CF80913501882309F43FC0853019
:10099000C9F18091E80083FD37C08091E80082FDB5
:1009A0002BC08091E80080FF1BC08091F2009091E5
:1009B000F30006C021912093F10061507040019630
:1009C0006115710519F088309105A0F321E0883098
:1009D000910509F020E08091E8008E778093E8008F
:1009E0006115710579F6222369F606C080913501FB
:1009F000882361F0853061F08091E80082FFF6CFB6
:100A000080E0089583E0089581E0089582E00895EC
:100A100083E0089520913C0130913D01261737076E
:100A200020F4B9019C0140E03BC061157105D1F78C
:100A30002091E8002E772093E800F4CF80913501D3
:100A4000882309F443C0853009F43CC08091E80054
:100A500083FD3AC08091E80082FD2EC08091E800BD
:100A600080FF1EC08091F2009091F30009C0F9014F
:100A70002F5F3F4FE491E093F10061507040019689
:100A80006115710519F08830910588F341E08830CF
:100A9000910509F040E08091E8008E778093E800AE
:100AA0006115710559F6442349F606C08091350158
:100AB000882361F0853061F08091E80082FFF6CFF5
:100AC00080E0089583E0089581E0089582E008952C
:100AD00083E008956115710529F42091E8002B77D2
:100AE0002093E800382F292F26C0809135018823D4
:100AF000B1F1853081F18091E80083FD2EC08091B5
:100B0000E80082FFF2CFE32FF22F08C08091F100BE
:100B100081933E2F2F2F6150704041F03E2F2F2F99
:100B20008091F2009091F300009781F78091E800A6
:100B30008B778093E80061157105B9F606C0809146
:100B40003501882361F0853061F08091E80080FFF5
:100B5000F6CF80E0089583E0089581E0089582E073
:100B6000089583E00895CF9380913501882361F043
:100B7000C091E900C7701092E9008091E80083FFFE
:100B800001C03EDDC093E900CF9108956F927F923E
:100B90008F929F92AF92BF92CF92DF92EF92FF928D
:100BA0000F931F93CF93DF9300D00F92CDB7DEB793
:100BB0007C016DB67EB68091E80083FFF2C0F7013C
:100BC000808190E020913A0130913B01281739074C
:100BD00009F0E7C080913701833009F491C0843077
:100BE00030F4813071F0823009F0DBC0C2C08A304D
:100BF00009F4A7C08B3009F490C0893009F0D1C046
:100C00004DC080913601813A09F0CBC08DB69EB6B9
:100C10001B821A8280913801009139018983F70182
:100C200047818DB79EB7841B91090FB6F8949EBF7C
:100C30000FBE8DBFCDB6DEB60894C11CD11CBC2C36
:100C4000AD2CC60160E070E050E0B7D1402F4150BC
:100C5000C701BE016F5F7F4F96018E010E5F1F4F70
:100C6000D4DAF70185819681009721F04781B6019A
:100C700050E09AD11092E9008091E800877F80933C
:100C8000E8006A817B818B2D9A2D68DE8091E800D7
:100C90008B778093E8008DBE9EBE83C08091360125
:100CA000813209F07EC0AEB600913C0110913D0149
:100CB000D0903801C09039018DB79EB7801B910B41
:100CC0000FB6F8949EBF0FBE8DBF8DB69EB608942A
:100CD000811C911C8091E800877F8093E800C4010B
:100CE000B801F8DE8091E8008E778093E8004C2D03
:100CF0004150C7016D2D9401A7DA6DBEAEBE51C043
:100D000080913601813A09F04CC08091E800877FDC
:100D10008093E800F70180853CC0809136018132E4
:100D200009F03FC08091E800877F8093E800EDDA0A
:100D30009091380181E0992309F480E0F7018087E0
:100D400030C080913601813261F58091E800877F63
:100D50008093E800DADA809138019091390180704F
:100D600036E0969587953A95E1F7F7019287818766
:100D700018C080913601813AA1F48091E800877F04
:100D80008093E800F70181859285969587959695E1
:100D900087958093F1008091E8008E778093E8003A
:100DA000B4DA0FB6F8947EBE0FBE6DBE0F900F90F2
:100DB0000F90DF91CF911F910F91FF90EF90DF90F7
:100DC000CF90BF90AF909F908F907F906F9008953D
:100DD000CF93DF93FC010896DC0185E0ED011992C9
:100DE0008A95E9F781E0808784EF91E09287818797
:100DF0008181628173819481992311F044E001C063
:100E000040E028E030E090E003C09F5F220F331FF6
:100E100026173707D0F342609295907F492B61ECFB
:100E200061DADF91CF9108954F925F926F927F9236
:100E30008F929F92AF92BF92CF92DF92EF92FF92EA
:100E40000F931F93CF93DF9300D00F92CDB7DEB7F0
:100E50007C014DB65EB680913501843009F07EC0CC
:100E6000F70181818093E9008091E80085FF76C0D9
:100E70007DB66EB647818DB79EB7841B91090FB6BC
:100E8000F8949EBF0FBE8DBF0DB71EB70F5F1F4FEB
:100E900019821B821A82B02EA12EC80160E070E078
:100EA00050E08BD0C701BE016F5F7F4F40E09801DB
:100EB0008E010E5F1F4FA9D9182FF70181859285EA
:100EC000009759F081E090E02385348521153105A4
:100ED00011F080E090E04C0102C088249924F701D1
:100EE000C580D680C114D10491F04A815B818B2DDD
:100EF0009A2DB6014CD001E0009709F400E0F7010B
:100F00004781C6016B2D7A2D50E04ED001C000E024
:100F10008A819B81009701F1112329F4002319F4A0
:100F200081149104C9F0F7018185928594878387A4
:100F300081818093E9008981882311F08093F100F9
:100F40006A817B818B2D9A2D40E050E0BDDC809141
:100F5000E8008E778093E8007DBE6EBE0FB6F894F1
:100F60005EBE0FBE4DBE0F900F900F90DF91CF91E0
:100F70001F910F91FF90EF90DF90CF90BF90AF90B7
:100F80009F908F907F906F905F904F900895FB019E
:100F9000DC0104C08D910190801921F44150504032
:100FA000C8F7881B990B0895FB01DC0102C0019072
:100FB0000D9241505040D8F70895DC0101C06D9367
:0C0FC00041505040E0F70895F894FFCF36
:100FCC0000010800002901080000000000A1200019
:0E0FDC000000000100A1010000000000000064
:00000001FF
