:1070000055C000006EC000006CC000006AC00000E7
:1070100068C0000066C0000064C0000062C00000DC
:1070200060C000005EC0000056C400005AC00000EE
:1070300058C0000056C0000054C0000052C00000FC
:1070400050C000004EC000004CC000004AC000000C
:1070500048C0000046C0000044C0000042C000001C
:1070600040C000003EC000003CC000003AC000002C
:1070700038C0000036C0000034C0000032C000003C
:1070800030C000002EC000002CC000002AC000004C
:1070900028C0000026C0000024C0000022C000005C
:1070A00020C000001EC000001CC0000011241FBE34
:1070B000CFEFDAE0DEBFCDBF11E0A0E0B1E0E0E16C
:1070C000FEE702C005900D92AC38B107D9F711E088
:1070D000ACE8B1E001C01D92AD39B107E1F7E1D2F2
:1070E00095C68ECF84E08093E9000DC08091E800C2
:1070F0008B778093E80003C08EB3882359F080918A
:10710000E80082FFF9CF8091E80085FFEFCF809102
:10711000F100089580E0089593E09093E900909144
:10712000E80095FD0DC09091E8009E779093E800EF
:1071300003C09EB3992331F09091E80090FFF9CFFE
:107140008093F100089584B7877F84BF88E10FB6EC
:10715000F89480936000109260000FBE90E080E889
:107160000FB6F89480936100909361000FBE81E0A8
:1071700085BF82E085BF99C382E061EC42E01ED307
:1071800083E061E842E11AD384E060E842E116C39B
:10719000809196018032B1F0813239F5809195016C
:1071A000813A19F58091E800877F8093E80089E0B3
:1071B00091E067E070E057D58091E8008B7780938D
:1071C000E800089580919501813279F48091E8007A
:1071D000877F8093E80089E091E067E070E0A2D5C6
:1071E0008091E8008E778093E80008954F925F9237
:1071F0006F927F928F929F92AF92BF92CF92DF92C7
:10720000EF92FF920F931F93CF93DF9384E08093CD
:10721000E9008091E80082FF33C210928E0162DFA4
:10722000082F8C3409F4D9C1803509F4D6C18435CE
:1072300029F0853429F410920801CFC153DFCDC164
:10724000843721F484E468DF80E0F0C1813611F4F2
:1072500089E5ECC18134F1F445DF382F330F20E0AC
:107260006901EE24D7FCE094FE2CC0928F01D092ED
:107270009001E0929101F092920134DF90E0880F4A
:10728000991FAA2797FDA095BA2F8C299D29AE2971
:10729000BF299BC1803711F483E5C8C1833541F410
:1072A000C0E0D1E017E0899137DF1150E1F7BFC1AD
:1072B000863521F481E330DF80E3B8C1833731F4D0
:1072C00087E82ADF85E928DF8EE1B0C1823631F414
:1072D00089E522DF80E020DF80E8A8C18536B9F4A7
:1072E000E0E0F0E093E085E090935700E89507B682
:1072F00000FCFDCF80935700E89507B600FCFDCF5A
:10730000EF57FF4F20E7EF35F20771F766C18C3674
:1073100051F4E8DE809599E0E1E0F0E0082E9093EA
:107320005700E8955AC1823719F4E1E0F0E00EC049
:10733000863419F4E0E0F0E009C08E3419F4E3E09B
:10734000F0E004C0813539F4E2E0F0E089E08093B8
:10735000570084916BC1833471F4C0918F01D09137
:107360009001C0DE90E021E0FE010C012093570067
:10737000E895112432C1833679F4C0918F01D09100
:107380009001C160AFDE90E021E0FE010C0120938E
:107390005700E89511240EC18D3661F4E0918F01FC
:1073A000F091900185E080935700E89507B600FCC6
:1073B000FDCF13C1823419F0873609F0DDC092DEAB
:1073C000C82E90DEC82F8EDE182F8554823008F02C
:1073D0002CC13C2D20E0D0E0C22BD32B073609F086
:1073E00051C081E180935700E89500E0CC24C3941C
:1073F00045C0163409F5E02FF0E080918F0190919F
:107400009001E82BF92B849187DE002399F080917D
:107410008F0190919001A0919101B09192010296FB
:10742000A11DB11D80938F0190939001A0939101B4
:10743000B09392010C2521C080918F019091900111
:10744000A0919101B0919201B695A79597958795D6
:10745000C7D462DE80918F0190919001A09191013B
:10746000B09192010296A11DB11D80938F0190935E
:107470009001A0939101B09392012197209709F078
:10748000B8CFD5C040908F0150909001609091018D
:1074900070909201163409F05CC083E0F201809391
:1074A0005700E89507B600FCFDCF53C0163461F5D0
:1074B000002331F1C0908F01D090900113DE982EFF
:1074C00088248B2D90E088299929F6010C01A0923F
:1074D0005700E895112480918F0190919001A0911F
:1074E0009101B09192010296A11DB11D80938F016F
:1074F00090939001A0939101B093920100E027C076
:10750000F1DDB82E01E023C0C0908F01D090900132
:10751000E0909101F0909201F694E794D794C7948B
:10752000E1DD682FC60164D480918F0190919001B4
:10753000A0919101B09192010296A11DB11D80937D
:107540008F0190939001A0939101B09392012197A4
:1075500004C0BB2400E0AA24A394209709F0A6CF7E
:10756000163409F03AC085E0F20180935700E8959F
:1075700007B600FCFDCF31C0823551F4E0918F0198
:10758000F0919001C591D4918D2FC6DD8C2F4EC006
:10759000843429F5C0908F01D0909001E090910142
:1075A000F0909201F694E794D794C7949BDD682FEE
:1075B000C6011ED480918F0190919001A0919101FC
:1075C000B09192010296A11DB11D80938F019093FD
:1075D0009001A0939101B09392018DE027C0843671
:1075E00011F580918F0190919001A0919101B0913E
:1075F0009201B695A79597958795F2D38DDD8091E9
:107600008F0190919001A0919101B0919201029609
:10761000A11DB11D80938F0190939001A0939101C2
:10762000B093920104C08B3111F08FE375DD83E0DC
:107630008093E9009091E8008091E8008E77809334
:10764000E80095FF04C010C08EB38823C9F0809174
:10765000E80080FFF9CF8091E8008E778093E80002
:1076600003C08EB3882361F08091E80080FFF9CFDA
:1076700084E08093E9008091E8008B778093E800B4
:10768000DF91CF911F910F91FF90EF90DF90CF90FE
:10769000BF90AF909F908F907F906F905F904F9032
:1076A0000895CF93DF930F92CDB7DEB784B714BEA2
:1076B0009091600098619093600010926000109229
:1076C0008E0190E0FC01E270F07081FD0BC08591AD
:1076D00094912FEF8F3F920729F0E0918C01F09168
:1076E0008D01099530DD6E9A769A789481E010E0EC
:1076F00000E0E0E0F0E0E590F49025C0898376DDDD
:107700005DD30F5F8981002311F4180F769A01175A
:1077100009F476981F3F59F0112351F4813041F05C
:1077200080918E018F5F80938E0181E001C08FEF89
:1077300090918E01943138F09FEFE9169FEFF90692
:1077400011F010920801909108019923B9F68091E7
:10775000E00081608093E0002CE088E190E00FB6CB
:10776000F894A895809360000FBE20936000FFCF2F
:10777000923049F0933061F09130C1F080E090E0B8
:1077800020E030E017C08EE390E02CE331E012C03F
:10779000882331F48091380190E028E331E00AC079
:1077A0008091100190E020E131E004C082E190E09E
:1077B0002AE731E0FA013183208308958093E900BC
:1077C000EBEEF0E0808181608083EDEEF0E01082EE
:1077D0006093EC0040838091EE00881F8827881F0B
:1077E00008958091950187FF11C003C08EB388234F
:1077F000B1F08091E80082FFF9CF8091E8008B77AB
:107800008093E80008958EB3882349F08091E800C2
:1078100080FFF9CF8091E8008E778093E80008958B
:107820004DD054D08091D800982F9F779093D80056
:1078300080688093D8008AE482BF80E189BD89B5E1
:10784000826089BD09B400FEFDCF8091D8008F7D94
:107850008093D8001EBA109293018091E0008B7F34
:107860008093E0008091D80081608093D80080E010
:1078700060E042E0A3DF8091E1008E7F8093E10031
:107880008091E20081608093E2008091E200886054
:107890008093E2008091E0008E7F8093E0008091F1
:1078A000D80080618093D8000895E7EDF0E08081F2
:1078B0008160808381E080939401B2CFE8EDF0E0B5
:1078C00080818E7F80831092E20008951092DA000A
:1078D0001092E10008951F920F920FB60F9211249B
:1078E0002F933F934F935F936F937F938F939F93C8
:1078F000AF93BF93EF93FF938091DA0080FF13C0A3
:107900008091D80080FF0FC08091DA008E7F809335
:10791000DA008091D90080FF04C081E08EBBA2D143
:1079200002C01EBA9FD18091E10080FF1CC08091EF
:10793000E20080FF18C08091E1008E7F8093E1001B
:107940008091E2008E7F8093E2008091E20080616E
:107950008093E2008091D80080628093D80019BCA7
:1079600085E08EBB7FD18091E10084FF2DC08091A6
:10797000E20084FF29C080E189BD89B5826089BDAC
:1079800009B400FEFDCF8091D8008F7D8093D80090
:107990008091E1008F7E8093E1008091E2008F7EF4
:1079A0008093E2008091E20081608093E200809108
:1079B0009301882321F48091E30087FF02C084E0D3
:1079C00001C081E08EBB4ED18091E10083FF21C0D8
:1079D0008091E20083FF1DC08091E100877F80934A
:1079E000E10082E08EBB109293018091E1008E7FD6
:1079F0008093E1008091E2008E7F8093E20080918D
:107A0000E20080618093E20080E060E042E0D6DE48
:107A100029D18091E10082FF0AC08091E20082FFBB
:107A200006C08091E1008B7F8093E1001BD1FF9124
:107A3000EF91BF91AF919F918F917F916F915F91E6
:107A40004F913F912F910F900FBE0F901F9018955F
:107A50000F931F93CF93DF9300D0CDB7DEB788E0AD
:107A6000E5E9F1E09091F10091938150D9F780918F
:107A7000950190919601953009F46BC0963040F4D1
:107A8000913061F1913070F0933009F0D5C026C08B
:107A9000983009F4A3C0993009F4B2C0963009F0C7
:107AA000CBC07CC0803809F4C8C0823809F0C4C09B
:107AB0008091990187708093E9009091EB0010927A
:107AC000E9008091E800877F8093E80081E095FFDE
:107AD00080E08093F1001092F1008BC0882319F0B0
:107AE000823009F0A9C08F71823009F0A6C0809160
:107AF0009701882341F520919901277009F49DC0D1
:107B00002093E9008091EB0080FF1DC080919601D9
:107B1000833021F48091EB00806213C08091EB00F0
:107B200080618093EB0081E090E002C0880F991F94
:107B30002A95E2F78093EA001092EA008091EB0028
:107B400088608093EB001092E9008091E800877FC5
:107B500053C0882309F070C0109197011F770FB7A9
:107B6000F8948091E800877F8093E8003ADE809166
:107B7000E80080FFFCCF112311F083E001C082E018
:107B80008EBB8091E3008078812B8093E30080910D
:107B9000E30080688093E3000FBF4FC080588230BD
:107BA00008F04AC0809197019091980160919901E5
:107BB000AE014F5F5F4FDCDDBC01009709F43DC0B3
:107BC0008091E800877F8093E80089819A814BD07B
:107BD0008091E8008B778093E8002FC0803861F5B2
:107BE0008091E800877F8093E800809193018093E3
:107BF000F1008091E8008E778093E800F2DD1DC0EF
:107C00008823D1F4909197019230B8F48091E800E4
:107C1000877F8093E80090939301E3DD8091930147
:107C2000882321F48091E30087FF02C084E001C033
:107C300081E08EBBA1DA01C0ABDA8091E80083FF5E
:107C40000AC08091EB0080628093EB008091E80095
:107C5000877F8093E8000F900F90DF91CF911F9165
:107C60000F910895089540919B0150919C014617F2
:107C7000570720F4BA01FC0140E03BC061157105D3
:107C8000D1F74091E8004E774093E800F4CF8EB3EF
:107C9000882309F443C08530E9F18091E80083FD31
:107CA0003BC08091E80082FD2FC08091E80080FFFA
:107CB00020C09091F3008091F200392F20E090E0F5
:107CC000822B932B06C041914093F100615070408C
:107CD00001966115710519F088309105A0F341E016
:107CE0008830910509F040E08091E8008E7780931C
:107CF000E8006115710559F6442349F605C08EB3B5
:107D0000882361F0853061F08091E80082FFF7CF31
:107D100080E0089583E0089581E0089582E0089569
:107D200083E008956115710529F44091E8004B77CF
:107D30004093E800582F492F2AC08EB38823D1F1F1
:107D40008530A1F18091E80083FD32C08091E80088
:107D500082FFF3CFE52FF42F08C08091F1008193CB
:107D60005E2F4F2F6150704069F05E2F4F2F909122
:107D7000F3008091F200392F20E090E0822B932BCA
:107D8000009759F78091E8008B778093E8006115A0
:107D9000710599F605C08EB3882361F0853061F0D6
:107DA0008091E80080FFF7CF80E0089583E0089598
:107DB00081E0089582E0089583E00895CF938EB323
:107DC000882361F0C091E900C7701092E9008091AA
:107DD000E80083FF01C03CDEC093E900CF91089525
:107DE000F999FECF92BD81BDF89A992780B5089583
:107DF000262FF999FECF1FBA92BD81BD20BD0FB6C7
:107E0000F894FA9AF99A0FBE01960895F894FFCF64
:107E10004C55464143444300010000000000000867
:107E20002603410056005200200043004400430056
:107E3000200042006F006F0074006C006F00610052
:107E400064006500720000000403090409023E009A
:107E50000201008032090400000102020100052431
:107E60000010010424020405240600010705820312
:107E700008000209040100020A00000007050402CC
:107E8000100000070583021000001201100102001B
:0C7E900000089A2301000100000100011D
:040000030000700089
:00000001FF
